:020000040800F2
:100000006006002075010008790100087B010008E6
:100010007D0100087F010008810100080000000048
:100020000000000000000000000000008301000844
:100030008501000800000000870100088901000810
:100040008B0100088B0100088B0100088B01000860
:100050008B0100088B0100088B0100088B01000850
:100060008B0100088B0100088B0100088B01000840
:100070008B0100088B0100088B0100088B01000830
:100080008B0100088B0100088B0100088B01000820
:100090008B0100088B0100088B0100088B01000810
:1000A0008B0100088B0100088B0100088B01000800
:1000B0008B0100088B0100088B0100088B010008F0
:1000C0008B0100088B0100088B0100088B010008E0
:1000D0008B0100088B0100088B0100088B010008D0
:1000E0008B0100088B0100088B01000800F002F86A
:1000F00000F02CF80AA090E8000C82448344AAF196
:100100000107DA4501D100F021F8AFF2090EBAE893
:100110000F0013F0010F18BFFB1A43F0010318473B
:1001200044010000540100000023002400250026A3
:10013000103A28BF78C1FBD8520728BF30C148BF4A
:100140000B6070471FB51FBD10B510BD00F031F832
:100150001146FFF7F7FF00F06FF800F04FF803B417
:10016000FFF7F2FF03BC00F057F8000080F30888A7
:100170007047000008480047FEE7FEE7FEE7FEE79D
:10018000FEE7FEE7FEE7FEE7FEE7FEE70348044979
:10019000044A054B70470000ED0000086000002095
:1001A0006006002060020020600200207047704757
:1001B0007047754600F02CF8AE4605006946534678
:1001C00020F00700854618B020B5FFF7DFFFBDE837
:1001D00020404FF000064FF000074FF000084FF0AE
:1001E000000B21F00701AC46ACE8C009ACE8C0093F
:1001F000ACE8C009ACE8C0098D46704710B50446AC
:10020000AFF300802046BDE81040FFF7A8BF000014
:10021000004870470000002001491820ABBEFEE7EF
:1002200026000200704770B5044625462868FFF78F
:100230009DFF6868804770BD08480468084A2168C7
:10024000914203D105490C31096802E00349091DB7
:1002500009680846FFF7E7FF00BFFEE784030008D0
:10026000558778AA7402000800000020600600008C
:040270002801000859
:04000005080000ED02
:1002F000112700000000000002000000FFFFFFFFC8
:10030000FFFFFFFFFFFFFFFFFFFFFFFFFFFFFFFFFD
:08031000FFFFFFFF41535033D2
:1003800000000008000400080008000800600008E1
:0C039000006400080000020800000208E1
:0804040010270000338E0000F8
:020000040800F2
:1008000008220020A9090008B1090008B30900085E
:10081000B5090008B7090008B90900080000000080
:10082000000000000000000000000000BB090008FC
:10083000BD09000800000000BF090008712B000876
:10084000C3090008C3090008C3090008C309000858
:10085000C3090008C3090008C3090008C309000848
:10086000C3090008C3090008C3090008C309000838
:10087000C3090008C3090008C3090008C309000828
:10088000C3090008C3090008C3090008C309000818
:10089000C3090008C3090008C3090008C309000808
:1008A000C3090008C3090008C3090008C3090008F8
:1008B000C3090008C3090008C3090008C3090008E8
:1008C000C3090008C3090008C3090008C3090008D8
:1008D000C3090008412E0008C3090008C309000825
:1008E000D5100008C3090008C309000800F002F889
:1008F00000F04AF80AA090E8000C82448344AAF170
:100900000107DA4501D100F03FF8AFF2090EBAE86D
:100910000F0013F0010F18BFFB1A43F00103184733
:100920001C3100003C3100000A4410F8014B14F067
:100930000F0508BF10F8015B240908BF10F8014B30
:100940006D1E05D010F8013B6D1E01F8013BF9D179
:10095000641E03D0641E01F8015BFBD19142E4D315
:10096000704700000023002400250026103A28BF0D
:1009700078C1FBD8520728BF30C148BF0B60704711
:100980001FB51FBD10B510BD00F027FA1146FFF7C7
:10099000F7FF02F089FE00F045FA03B4FFF7F2FF1B
:1009A00003BC00F04DFA00000948804709480047A1
:1009B000FEE7FEE7FEE7FEE7FEE7FEE7FEE7FEE70F
:1009C000FEE7FEE704480549054A064B704700006C
:1009D000BD2B0008ED08000808190020082200209F
:1009E000081A0020081A0020EFF3108072B6704732
:1009F00080F31088704730BF80F3088870474FF04D
:100A0000010080F3138802480249016000BFFEE73D
:100A10000CED00E00400FA0508B50146002000BF17
:100A20000CE00A5C02F0F002C0F10303CB5C03F0BF
:100A30000F031A430DF80020421CD0B20328F0DD4A
:100A4000002004E01DF800200A54421CD0B2032804
:100A5000F8DD08BD03784B40037043785340437082
:100A600083784B408370C3785340C3707047F8B5A8
:100A700013460022072900DC01B9F8BD012B60D123
:100A80000578C1F108060124B440641E2C408C4056
:100A90004678C1F108070125BD406D1EC5F1FF056F
:100AA0003540C1F1080635412C43E4B28DF80040D1
:100AB0004578C1F108060124B440641E2C408C40E6
:100AC0008678C1F108070125BD406D1EC5F1FF05FF
:100AD0003540C1F1080635412C43E4B28DF80140A0
:100AE0008578C1F108060124B440641E2C408C4076
:100AF000C678C1F108070125BD406D1EC5F1FF058F
:100B00003540C1F1080635412C43E4B28DF802406E
:100B1000C578C1F108060124B440641E2C408C4005
:100B20000678C1F108070125BD406D1EC5F1FF051E
:100B30003540C1F1080635412C43E4B28DF803403D
:100B400053E0022B50D1C57801248C40641E2C4008
:100B5000C1F10805AC40067801258D406D1EC5F138
:100B6000FF0535400D412C43E4B28DF80040057877
:100B700001248C40641E2C40C1F10805AC4046782D
:100B800001258D406D1EC5F1FF0535400D412C43FB
:100B9000E4B28DF80140457801248C40641E2C405D
:100BA000C1F10805AC40867801258D406D1EC5F168
:100BB000FF0535400D412C43E4B28DF802408578A5
:100BC00001248C40641E2C40C1F10805AC40C6785D
:100BD00001258D406D1EC5F1FF0535400D412C43AB
:100BE000E4B28DF8034000E047E7002204E01DF87E
:100BF00002408454541CE2B2032AF8DD00BF3CE7F3
:100C000010B504462046FFF707FF6C4802786C4891
:100C100001782046FFF72BFF6A4802786A4801787E
:100C20002046FFF717FF654842786548417820461F
:100C3000FFF71DFF2046FFF7EFFE6248427862484B
:100C400041782046FFF706FF2046FFF7E5FE5D48A6
:100C500082785D4881782046FFF7FCFE574882780D
:100C6000574881782046FFF702FF5648C278564819
:100C7000C1782046FFF7EEFE5048C2785048C17850
:100C80002046FFF7F4FE2046FFF7C6FE10BD30B544
:100C90000346002000BF07E01C5C00F00305555D23
:100CA0006C401C54441CE0B28842F5DB30BD70B58A
:100CB00004460D462946204600F092F908B9012065
:100CC00070BD0020FCE770B504460D46042229469D
:100CD0003E4802F0FAFC28B904223D49204602F0C1
:100CE00005FD07E004222946204602F0FFFC2046CD
:100CF000FFF786FF70BD70B504460D4600262A46F4
:100D00002146A01D02F0FEFC05F108002070022023
:100D1000607004222D49A01C02F0F4FC2C4A2946E4
:100D2000A01DFFF7B4FF2078801E81B2204600F09E
:100D300057F9064631122078801E21542078401E33
:100D40002654012070BDF8B504462178204600F0F5
:100D500047F908B10220F8BD25786678022E1BD12C
:100D6000A11C6846FFF7AFFFA5F10800C1B26A46B3
:100D7000A01DFFF78CFFA5F10800C1B2A01DFFF771
:100D800096FF38B1A5F10802A11D204602F0BAFC79
:100D90000020E0E70120DEE70320DCE710B5044691
:100DA00004222146094802F0A1FC042221460848F9
:100DB00002F09CFC0648FFF723FF10BD303A000804
:100DC0002C3A0008383A0008343A0008580100204C
:100DD0005C010020704770477047754600F02CF8A2
:100DE000AE4605006946534620F00700854618B018
:100DF00020B5FFF7E7FDBDE820404FF000064FF0BB
:100E000000074FF000084FF0000B21F00701AC463F
:100E1000ACE8C009ACE8C009ACE8C009ACE8C0095E
:100E20008D46704710B50446AFF300802046BDE8FC
:100E30001040FFF7B2BD000000487047A418002022
:100E400001491820ABBEFEE72600020070470000F3
:100E500010B500F067FB006905490068884205D0BD
:100E600004480068BDE8104000F03CBE10BD000022
:100E7000A53CC35A9003000870B500F053FB4469C9
:100E80004FF0006505E000F053FA2168884204D075
:100E90001034D5F89003A042F5D8103C074A102131
:100EA000204601F085F82068A0F14901142901D8F5
:100EB000C0B270BD01495320086070BD7418002095
:100EC00070B50446204D288900280DD1082C00D388
:100ED000012401F0AFFF1D4931F81410B0FBF1F20D
:100EE00001FB1200801C28810221012000F0D6FAAB
:100EF0004FF4C872002480B12C81EC80A888401C7B
:100F000080B2A880B0F57A7F05D9AC80104B002163
:100F1000032001F093FE002070BD2889401E0004CC
:100F2000000C2881F7D1E888401C80B2E880642852
:100F300005D9EC80064B0021032001F07FFE2C81B7
:100F4000AC80012070BD000038010020103A00087C
:100F5000052A000870B50021D0F80B401E4DC1EBEA
:100F6000C10305EB43021668A6421CD10021C47BD5
:100F70005618367AA64201D1002070BD491CC9B26C
:100F80000529F5D3517B491CC9B20524B1FBF4F600
:100F900004FB161151730822294402EB4302C07B63
:100FA0008854012070BD491CC9B21429D7D30B4BFA
:100FB0001978491CC9B21422B1FBF2F402FB1411D6
:100FC0001970C1EBC10105EB4101C27B0A72D0F877
:100FD0000B000860012070BDA00500201C0000204F
:100FE00070B5002300240022074E08E0855C5D40B8
:100FF00036F81550EBB263402C0A521C92B28A426A
:10100000F4D344EA032070BD5C37000810B50549ED
:10101000054800F083FFBDE810400449044800F093
:101020007DBF000070020020F00600209004002028
:10103000100F002006E00521491E89B20029FBD1CE
:10104000401E80B20028F6D17047000070B500F055
:1010500069F980B24FF480724FF4C07354005D00A0
:101060009600402811D080280FD090420DD0984291
:101070000BD0A04209D0A84207D0B04205D01248F8
:1010800081690068081AC0F38F20104998420DD07A
:1010900006DC40280DD080280FD0904211D105E009
:1010A000A04203D0A84201D0B0420AD1084808604B
:1010B00070BD07483038086070BD054818380860B2
:1010C00070BD0020086070BD800300083001002062
:1010D000F839000810B5044801F012F803494FF43C
:1010E0008060086010BD0000E0060020140401408C
:1010F00070B58B088C07240F124DAE6946F00106BF
:10110000AE619D00104B2B449D680F26A640B54351
:101110009D609D68A04005439D600C4B1C680120AC
:10112000884004431C60D10704D0084B0C33196875
:1011300001431960910704D5044908310A68024344
:101140000A6070BD00100240000001400004014030
:10115000F0B5C1B006461446002E32D0FA2C30D875
:10116000224601A802F0C2FAA1B201A8FFF738FF97
:101170000546FFF739FC074606221349304602F0C0
:101180004AFAF0B12A0A01A8611C02554A1C4554CA
:10119000D1B2FFF7B0FDA0B19DF80420FA2A10D813
:1011A00001A9304602F037FA58B106220749304605
:1011B00002F031FA28B13846FFF71AFC012041B09D
:1011C000F0BD0020FBE700005C3900086239000830
:1011D00070B500F07BFE194900204870887001222C
:1011E0004A71174DC1F80C51164BC1F8083101F581
:1011F000887148708A704A71134AC1F80C21134CE7
:10120000C1F8084101F588714870887002244C715A
:10121000C1F80C51C1F8083101F588714870887027
:101220004C71C1F80C210A48C1F80801BDE87040B2
:1012300005220021074B022001F000BD60010020C3
:10124000593400085D1D0008C1330008C11E0008A4
:10125000191F00080D10000870B505464FF4005620
:10126000304600F075F880B90B4C206940F0020060
:1012700020616561206940F040002061304600F047
:1012800067F8216921F002012161002803D1BDE83E
:10129000704000F051B870BD002002400022402193
:1012A000104602F05AB838B504466A460121204675
:1012B00000F0F2FE9DF80010491C00916A460121E1
:1012C000204602F017F838BD0122FF21014B002013
:1012D00000F087BD2E01002010B50C46002804D078
:1012E000012809D0022811D109E0022001F0A0FF55
:1012F0000B4801F0E9FC09E000F0ECFB06E02AB144
:10130000134600210522084601F098FC002C06D067
:10131000012C04D02046BDE81040FFF7C4BF10BD2B
:10132000E11A00080148008870470000E0F7FF1F3D
:101330004FF0FF30704700000448C168890603D5AC
:101340002021C1600120704700207047002002402A
:10135000094900E0401E10B1CA68D207FAD138B17D
:10136000C86810F0140F05D01420C8600120704721
:1013700001207047002070470020024003480249C6
:1013800041600349416070472301674500200240E6
:10139000AB89EFCD2DE9F04105460C4616464FF4DA
:1013A00040584046FFF7D4FFB8B90F4F386940F0B6
:1013B000010038610BE036F8020B25F8020BA41E81
:1013C0004046FFF7C5FF20B9FFF7B6FF08B1002C74
:1013D000F1D1386920F00100386114B10020BDE876
:1013E000F0810120FBE70000002002400248016973
:1013F00041F0800101617047002002402DE9FC4767
:101400000023002400940194224C04EB8024224EFB
:10141000B769801C4FF0010808FA00F52F4202D18D
:10142000B0692843B06102F00F0C2068009060683A
:10143000019008FA03F50D421DD0D8086F465DF8FB
:1014400020905E07F60E4FF00F0A0AFA06FA29EA14
:101450000A094DF8209057F820900CFA06F649EA50
:10146000060947F82090182A02D0082A02D002E084
:10147000656100E025615B1C102BDAD311F0FF0FD2
:1014800001D000982060FF2901D901986060BDE873
:10149000FC870000000801400010024002460020C6
:1014A000034B03EB822292680A4200D0012070476E
:1014B00000080140024A02EB8020416170470000B1
:1014C00000080140024A02EB8020016170470000E1
:1014D00000080140034A02EB8020C2684A40C26013
:1014E00070470000000801400C4902280AD0032080
:1014F00088770220C87701F128000862103048621E
:101500001A38704709200870082048700448C1F84C
:1015100002001030C1F8060000487047B8060020ED
:10152000000F0020014800687047000030010020D3
:1015300070B50D461446FFF79FFC207001202870FF
:1015400070BD70B506460D461446FFF7EBFF026905
:1015500000687379012B03D0022B0FD00E2070BDD1
:101560000B212970918821800168C4F802109168CC
:10157000C4F80610007AA072012070BD1E2070BD54
:1015800070B506460C461546FFF7CCFF0169F078AA
:1015900048B1B0884A68824205D0A0F57F42FF3A40
:1015A00001D0122070BD002020708888288020780B
:1015B000801CC0B22070896829502078001D2070DE
:1015C000012070BD10B50B460D490078097888429E
:1015D00014D10C4C2078F12805D0F2280CD0002032
:1015E0002070222010BD1146184601F07DFD08B183
:1015F000F2202070012010BD012010BD032010BD7D
:10160000250000202400002070B504460D46164633
:1016100000F056FA2379F02B03D0F22B08D00E20DD
:1016200070BD324629462046BDE87040FFF789BFAD
:10163000324629462046BDE87040FFF7C3BF000090
:101640002DE9F0410C461546FFF76CFF0269016871
:101650004368002020704FF6FF7028802078801C9F
:10166000C0B22070134F1668BE4202D14FF0FF3255
:1016700000E092682A502078001DC0B220705A689D
:101680002A502078001DC0B2207051F8242B2A5017
:101690002078001D207004E02078431C23702A5419
:1016A000491C0A78A2F130002A28F5D90120BDE8AA
:1016B000F0810000A53CC35A10B50446FFF732FF85
:1016C0008168104A0868904213D14868421C10D0C3
:1016D00078B1B0F1443F0CD0B0F1883F09D00A4A4C
:1016E000904206D08968C943884202D1A04205D100
:1016F00005E006480168A14201D0006810BD002045
:1017000010BD00005A3CC3A542455354F0F7FF1FDB
:1017100010B5044640210120FFF7CCFE0220FFF760
:1017200089FC24B180210120FFF7CCFE03E0802159
:101730000120FFF7BFFE0220FFF77CFC40210120C3
:10174000FFF7C0FE0220FFF775FC4021BDE8104006
:101750000120FFF7AFBE10B50322C0210120FFF723
:101760004DFE80210120FFF7ADFE40210120FFF753
:10177000A9FE032220210120FFF740FE2021BDE821
:1017800010400120FFF79EBE70B5064600241822C7
:1017900080210120FFF732FE002540210120FFF7C4
:1017A00089FE0220FFF746FC40210120FFF78AFE58
:1017B0000220FFF73FFC6006040E80210120FFF7A6
:1017C0006DFE08B1641CE4B20220FFF733FC6D1C0F
:1017D000EDB2082DE1D340210120FFF76BFE02207E
:1017E000FFF728FC032280210120FFF707FE80215C
:1017F0000120FFF767FE0220FFF71CFC3046FFF7D1
:1018000087FF204670BD70B5054640210120FFF7D7
:1018100051FE0220FFF70EFC0024280604D580218B
:101820000120FFF74FFE03E080210120FFF742FE79
:101830006806050E0220FFF7FDFB40210120FFF79F
:1018400041FE0220FFF7F6FB40210120FFF732FEA8
:101850000220FFF7EFFB641CE4B2082CDDD3BDE8E7
:10186000704000F031B810B580210120FFF72AFE4A
:1018700040210120FFF726FE0220FFF7DBFB80213D
:101880000120FFF717FE0220FFF7D4FB4021BDE83F
:1018900010400120FFF70EBE10B580210120FFF798
:1018A00009FE0220FFF7C6FB40210120FFF70AFED8
:1018B0000220FFF7BFFB80210120FFF703FEBDE8F8
:1018C00010400220FFF7B6BB70B50024182280211B
:1018D0000120FFF793FD0220FFF7ACFB4021012020
:1018E000FFF7F0FD0220FFF7A5FB4FF4FA750EE0BD
:1018F000641CA4B2AC420AD9032280210120FFF764
:101900007DFD80210120FFF7DDFD002070BD8021DD
:101910000120FFF7C3FD0028EAD140210120FFF795
:10192000C9FD0220FFF786FB032280210120FFF77B
:1019300065FD80210120FFF7C5FD0220FFF77AFB3E
:10194000012070BD70B505460C46FFF78CFF284698
:10195000FFF759FF08B9641EF7D1FFF79DFF0CB1DF
:10196000012070BD002070BD2DE9F04107460E46F4
:1019700015461C46FFF777FF3846FFF744FFF0B1E6
:10198000300AFFF740FFD0B1F0B2FFF73CFFB0B133
:10199000FFF769FF47F00100FFF735FF38B90EE0A8
:1019A0000020FFF7F1FE05F8010B641EE4B2012CE4
:1019B000F6D8641EE4B20120FFF7E6FE2870FFF7B8
:1019C0006BFF14B10020BDE8F0810120FBE72DE999
:1019D000F04107460E4615461C4620210120FFF720
:1019E00069FDFFF740FF3846FFF70DFF88B1300A69
:1019F000FFF709FF68B1F0B2FFF705FF38B908E05B
:101A000015F8010BFFF7FFFE18B1641EE4B2002CBD
:101A1000F6D1FFF741FF20210120FFF753FD14B15C
:101A20000020BDE8F0810120FBE72DE9F0410746E9
:101A30000D4616461C4620210120FFF73BFDFFF70F
:101A400012FF3846FFF7DFFE80B1280AFFF7DBFE02
:101A500060B1E8B2FFF7D7FE30B907E03046FFF7D4
:101A6000D2FE18B1641EE4B2002CF7D1FFF714FFC8
:101A700020210120FFF726FD14B10020BDE8F081F0
:101A80000120FBE710B50C4A45F255531360506036
:101A90009160580010604CF6CC4010600222D102D8
:101AA0000020FFF7ABFC0021BDE81040034B4FF4D2
:101AB0004872022001F0C2B800300040C11A00088C
:101AC00003494AF6AA20086089140020FFF702BDE6
:101AD00000300040014801F0F7B80000C11A0008CA
:101AE0007047000010B50446006806490840B0F190
:101AF000005F06D12068FEF77FFF6068BDE81040F8
:101B0000004710BD0000FE2FF0B505460F461446F5
:101B10001E46304600F018F8C6F1040085400F203C
:101B2000F04038402843000104F1E02181F800042E
:101B300004F01F01012088406109890001F1E021C2
:101B4000C1F80001F0BD0000072181430902054AE8
:101B500010684FF6FF031840034B1843084310600A
:101B6000704700000CED00E00000FA0510B50549D3
:101B7000054800F0D3F9BDE810400449044800F0DE
:101B8000CDB9000060010020E006002080030020A5
:101B9000000F00202DE9F843044688460D266078A2
:101BA000DFF8F09000EB800009EB8000C5680027AB
:101BB0000020009001F0C8F96178884262D9A178CC
:101BC000286888424FD1207802280DD004280BD0F5
:101BD000072809D0092807D005282CD00B282AD09F
:101BE0000D2828D00C264DE0A86810B360782A494B
:101BF00001EBC000807998B1E278611CD21CA01C76
:101C000001F080FD84F80180A968601C88470646C1
:101C10000322A11C601C01F075FD022E02D031E0F0
:101C200009262FE02868CF2800D90126E078009007
:101C300028E00A2626E0E86898B1E278611CD21C08
:101C4000A01C01F05FFD84F80180621DEB6869460D
:101C5000601C984706460322A11C601C01F052FD3F
:101C600010E00B260EE0607800EB800009EB8000AE
:101C7000006980477F1CFFB2B84203D955F8100FA6
:101C8000FF289CD99DF80000401CE070267130466A
:101C9000BDE8F883183A00085001002070B50446EA
:101CA0000846FFF721FC054601202070184E3068D9
:101CB000C4F801007068E060D4F8060071688842DA
:101CC00002D0607901280CD9227DD5F802001532A6
:101CD0002146FFF73DFA20B9297800220220FFF7BC
:101CE000FBFAD4F80600716888420FD0227DD5F83F
:101CF000060015322146FFF72BFA002806D1697835
:101D0000BDE8704000220220FFF7E6BA70BD000077
:101D10008418002070B5C0B00E46154601AC0146CF
:101D20001022601C01F0E2FC0B49487A401C48720A
:101D30008DF814000422314604F1110001F0D6FCA4
:101D4000F27829460DF1190001F0D0FC012120465E
:101D5000FFF7A4FF40B070BD84180020F8B50E4610
:101D600010F8015C841D00F11B0104F111030091C6
:101D70001F46621C314600F069F801281ED1294631
:101D80003846FFF707FF0246032A17D0607C022877
:101D90000DD005280BD0072801D00B2801D1012A2E
:101DA00005D0092801D00D2808D1012A06D000F05D
:101DB00007F8607429462046FFF770FF0120F8BD40
:101DC000801E0C280BD2DFE800F0060A0A080A067B
:101DD0000A060A080A0803207047062070470020F8
:101DE000704710B590B0144601228DF800208DF890
:101DF00001008DF802108DF803402246194601A813
:101E000001F074FC241D0021E2B26B46084600F08C
:101E100002F810B010BD10B586B001248DF80C404A
:101E20004FF08834CDF80D400024ADF811408DF806
:101E300004408DF805008DF806108DF807201A462D
:101E400001A902A8FFF766FF06B010BD70B51446E1
:101E5000184D20682968884206D0174A904203D05E
:101E6000491C01D0042070BD2046FFF773F830B143
:101E700020791249012804D005280CD00EE0082052
:101E800070BDD4F805006A68904201D0062070BD8C
:101E90000020486007E0D4F8050008B10D2070BDAF
:101EA000D4F80B004860D4F80B00C4F805000120FA
:101EB00070BD000084180020424553541C000020CF
:101EC0000C39C9B2801D00F079BD000010B50E4973
:101ED0004FF480642246A1F1200001F0ECFA0B4996
:101EE0002246A1F5826001F0E6FA09492246A1F1F5
:101EF000200001F0E0FA22460649BDE81040A1F5B5
:101F0000826001F0D8BA000000070020000B00201A
:101F1000200F00202013002000F0EEBF70B50C460B
:101F200000256178002902D0012922D10EE0014666
:101F3000D4F80C21A01D904710F0FF00207014D0A1
:101F40002571A078012811D00120E070D4F8083163
:101F500022792178A01D984728B1E078401E10F022
:101F6000FF00E07005D00120607070BD0248007A6B
:101F7000EBE7657070BD00008418002070B5054661
:101F80000C46FFF7FBF94FF4806603E0A4F580648C
:101F900005F580652846FFF75FF908B1B442F5D82A
:101FA000FFF724FAB44201D8012070BD002070BDB3
:101FB0008B0707D021F0030141F0040102E008C8BB
:101FC00008C2091F0029FAD10120704770B50546E3
:101FD0000C461646E10700D0641CFFF7CFF93246E5
:101FE00021462846FFF7D6F90446FFF7FFF92046B9
:101FF00070BD000010B5244A516801F00C01234B5C
:10200000042926D0082926D00360516801F0F00188
:1020100009091F4B5B5C0168D9404160536803F4B8
:10202000E0631B0A1A4C083CE35C21FA03F383606B
:10203000536803F46053DB0AE35CD940C160526823
:1020400002F44042920B231F9A5CB1FBF2F1016152
:1020500010BD0360D9E7516801F47011536803F4AF
:102060008033022404EB914133B153689B0307D5BD
:10207000084B59430160C8E7064B59430160C4E768
:10208000024B59430160C0E70010024000127A0081
:102090000C00002000093D002DE9F04105460C46EA
:1020A000174620E0B5F5004F03D247F69C708442F6
:1020B00002D90020BDE8F08105F03F00C0F14006E4
:1020C000A64200D32646F3B2A9B23A46A020FFF7B3
:1020D0004BFC50B13544A41B37444FF0FF31A020D6
:1020E000FFF730FC08B1002CDCD134B100221146DE
:1020F0001046FFF7F1F80020DCE70120DAE70000E6
:102100002DE9F04F91B0834600253227A946424E73
:102110004FF4806A71E028466D1CEDB2052805D9A0
:10212000052000F0A5FA86F801906CE0002103205C
:1021300000F042F980460021042000F03DF95FEAFA
:10214000C87002D086F801905DE05FEAC86019D5DA
:10215000707810B9584601F0A1FA002400217F20C0
:1021600000F02AF90146584601F03AFA641CE4B23C
:10217000322CF3D37078CD2802D986F8019042E052
:10218000323070705FEA887037D500214B2000F044
:1021900013F904460DF104080DE000217F2000F042
:1021A0000BF901467078B0FBF7F207FB120208F852
:1021B0000210401C70707078A042EED3322C02D80E
:1021C000584601F06BFAB4FBF7F007FB104020B162
:1021D000B4FBF7F007FB104200E0322201A9584699
:1021E00001F019FA584601F0B3FA86F8019020B9C7
:1021F000002203210220FFF76FF851460120FFF76C
:102200004DF9002887D07078002801D100F0EAF855
:1022100011B0BDE8F08F0000380100200149012015
:1022200088707047380100202DE9F04107460D46BF
:1022300000F026FA00F000F92946BE2000F0BCF8B4
:102240004FF480581BE0444603E0142001F02AF9C3
:10225000641E0021032000F0AFF8800601D4002C9A
:10226000F3D1002607E017F8011BFF2000F0A4F8C7
:102270006D1EEDB2761C322E01D2002DF3D1002D51
:10228000E1D10921872000F097F84FF4C87001F0E0
:1022900009F902E0B8F101080ED00021032000F096
:1022A0008BF8400702D4B8F1000FF3D100F0E8F941
:1022B000BDE8F04100F096B8042000F0D9F9F5E748
:1022C0001E48016941F480410161016921F48041A6
:1022D0000161816941F008018161C16941F4804176
:1022E000C16117480168C1F3130101600168154A13
:1022F0001143016012480830016841F460410160F7
:10230000114801880180018841F400710180018831
:1023100041F480710180018841F00401018001884D
:102320000180018841F01801018001880180018845
:1023300041F040010180FF2000F008B80010024089
:10234000040C01400000B0BB0038004010B5002173
:102350004FF6FE730E4A06E00C46491C89B29C42B9
:1023600001D3002010BD1488A407F5D5084C241D06
:102370002080002006E00146401C80B2994201D333
:10238000002010BD1188C907F5D02088C0B210BD4B
:102390000838004000F007010648028822F03802A1
:1023A0000280028842EAC1010180018841F04001B7
:1023B000018070470038004070B506460D464FF466
:1023C000805421460120FFF775F83046FFF7BEFF25
:1023D0002846FFF7BBFF054621460120FFF772F8AC
:1023E000284670BD10B505218720FFF7E5FF0221C3
:1023F0008E20FFF7E1FF02218820FFF7DDFF00219B
:102400008820FFF7D9FF13218520FFF7D5FF802112
:102410008620FFF7D1FF00210320FFF7CDFF002129
:102420000420FFF7C9FF0348016841F4806101609F
:1024300010BD00000004014010B503218820FFF703
:10244000BBFF08218820FFF7B7FF0121BDE810403E
:102450008E20FFF7B1BF00000CB500220192009260
:102460002748016841F4803101604FF4A06301689E
:1024700001F4003100910199491C0191009911B9B1
:1024800001999942F3D10168890302D50121009194
:1024900000E000920099012930D11A490A6842F0FF
:1024A00010020A600A6822F003020A600A6842F019
:1024B00002020A604168416041684160416841F43C
:1024C00080614160416821F47C114160416841F4C0
:1024D000E8114160016841F0807101600168890183
:1024E000FCD5416821F003014160416841F00201DF
:1024F00041604168C1F381010229FAD10CBD00009D
:10250000001002400020024010B50446E078012887
:1025100001D00F2010BD20794938152801D30E2095
:1025200010BDFEF7A9FC01462079814209D000F0D8
:1025300081FD40B10021054B4FF44872084600F080
:102540007DFB012010BD122010BD0000CD2600082B
:1025500010B5184A01781278914229D1164C217889
:10256000F22905D0F32921D000202070222010BDAF
:10257000401D0179427951404A40427151400171F8
:102580008188006800F046FD012811D100F08CFD23
:1025900070B1F3202070FFF79DFA084B4FF448729A
:1025A0000121002000F04AFB012010BD012010BDD8
:1025B000032010BD2500002024000020FF09000892
:1025C00010B50446FFF77CFA0D4920780978884257
:1025D00014D10C490878F12805D0F2280CD000203D
:1025E0000870222010BDE078801EC1B2A088A21D14
:1025F000BDE8104000F09EBD012010BD032010BDBD
:10260000250000202400002010B50446FFF758FAEA
:102610002179F12903D0F32906D00E2010BD2046E0
:1026200000F0B4FDC0B210BD2046BDE81040FFF779
:102630008FBF10B50446E078012801D1217961B13E
:1026400078B100F081FC0146207981420ED900F07A
:10265000B5FC207900F088FC06E0022000F030FE96
:1026600002E0012000F02CFE012010BD0E2010BD64
:102670000146024A0220FEF72FBE0000CD260008C8
:1026800010B51148016821F48061016000218E209D
:10269000FFF792FE01218720FFF78EFE00218520A3
:1026A000FFF78AFE00218620FFF786FE0021032027
:1026B000FFF782FE00210420FFF77EFEBDE81040F8
:1026C000022000F0E1BE00000004014010B500F05F
:1026D00049F94FF480510120FEF7F4FE4FF40064F5
:1026E00021460120FEF7EEFE022000F0CDFE21463D
:1026F0000120FEF7DFFE322000F0C6FE002103209D
:10270000FFF75AFE00210420FFF756FE80218720A4
:10271000FFF752FE022000F0B7FE00218720FFF7EE
:102720004BFE00218520FFF747FE00218620FFF7A2
:1027300043FE00210320FFF73FFE00210420FFF7A6
:102740003BFE79218920FFF737FE06218A20FFF71B
:1027500033FEEA218B20FFF72FFEEA218C20FFF7C2
:102760002BFEFC218D20FFF727FE00218E20FFF796
:1027700023FE2B219C20FFF71FFE40219D20FFF709
:102780001BFE0A219E20FFF717FE03219F20FFF763
:1027900013FE6821A020FFF70FFE0121A120FFF703
:1027A0000BFE3A21A220FFF707FE9321A320FFF79B
:1027B00003FE0221A420FFF7FFFDF621A520FFF76D
:1027C000FBFD1D21AA20FFF7F7FDAC21B020FFF78C
:1027D000F3FD0021B220FFF7EFFD0221B320FFF748
:1027E000EBFD1021B420FFF7E7FD2821B520FFF70E
:1027F000E3FD2D21B620FFF7DFFDD421B720FFF741
:10280000DBFD0021B820FFF7D7FD0021B920FFF73D
:10281000D3FD4221BA20FFF7CFFD4521BB20FFF7B2
:10282000CBFD5321BC20FFF7C7FD5421BD20FFF78E
:10283000C3FD4221BF20FFF7BFFD4521C020FFF7A8
:10284000BBFD5321C120FFF7B7FD5421C220FFF784
:10285000B3FDFF21C320FFF7AFFDFF21C420FFF729
:10286000ABFDFF21C520FFF7A7FDFF21C620FFF725
:10287000A3FD8021D820FFF79FFD6021E920FFF70D
:102880009BFD4E21EE20FFF797FDA521EF20FFF7DE
:1028900093FD2D21F020FFF78FFD2321F120FFF77D
:1028A0008BFD0D21F220FFF787FD5221F520FFF768
:1028B00083FDFEF7E1FA493800EB80004006010E87
:1028C000F920FFF779FD0A21FA20FFF775FD0021B5
:1028D000F320FFF771FD0021F420FFF76DFD622169
:1028E000F620FFF769FD0021F720FFF765FD0721BE
:1028F000ED20FFF761FD18480178A720FFF75CFD88
:10290000164B4FF4C8720021032000F097F91E21E6
:10291000FC20FFF751FD0C21FD20FFF74DFD32217A
:10292000FE20FFF749FD01220A211046FEF7E0FBD9
:102930000223282200211846FFF7E6F8084801681C
:1029400021F480610160FFF79BFEFFF74BFDBDE8BE
:102950001040FFF763BC000038010020052A000882
:102960000004014010B51448016821F48061016041
:10297000C11402220120FEF741FD0222D1020120F2
:10298000FEF73CFD0422140221460120FEF736FD2D
:10299000042202210120FEF731FD21460120FEF72D
:1029A00091FD02210120FEF78DFDFFF789FCBDE8B6
:1029B00010400420FFF7EEBC000401402DE9F04177
:1029C00006460F4615460D4CA078012813D128461F
:1029D000FEF776FA78B10020A0700021084BC822DB
:1029E000084600F02BF92A4639463046FFF71CFC12
:1029F0000120BDE8F0810020FBE700003801002045
:102A00001D22000870B500212620FFF7D5FC324BAF
:102A10001978814201D2421A00E00A1A2E4C002590
:102A20000A3C082A36DA400800EB5100C0B21870A0
:102A3000D978491CC9B2D97014293FD9A0F10A012B
:102A4000D32924D21430C1B22170A720FFF7B4FCDF
:102A50006069C8B100F0EEF96169884204D200F003
:102A6000E9F96169081A03E000F0E4F96169401AC4
:102A70001A49884204D20420FFF7FAFD656106E096
:102A800000F0D8F9606102E000F0D4F960612561DE
:102A9000002070BD5978814201D2411A00E0091A24
:102AA000322909DA9978491CC9B29970042905D9E3
:102AB0001870DD709D7001E058709D702069401C99
:102AC0002061B0F5167F05D925610420FFF7D0FD00
:102AD000002070BD012070BD42010020A0680600EA
:102AE00010B500F0BBFB002207210220FEF7F4FB2B
:102AF0000021054B4FF47A72084600F09FF8BDE8BC
:102B000010400248FEF74AB95532000888180020E4
:102B100070B50D4C4FF0FF3020600020FEF7CCFD6B
:102B2000606002202072002565721422002104F1E9
:102B30000A0000F004FEA5772246BDE870401F2180
:102B4000402000F0D7BB00008418002010B500F032
:102B500021F8FEF700FEFFF7B9FD4FF4165000F024
:102B600089F9BDE810404FF4FA610520FEF78ABFED
:102B7000064A10680649B0FBF1F301FB1300106030
:102B80001068401C106000F003B900003401002000
:102B90000084D71700B585B06846FFF72BFA019877
:102BA0004FF47A71B0FBF1F14FF0E020491E416122
:102BB0000721016105B000BD0620704710B50F4820
:102BC000016841F00101016041680D4A1140416016
:102BD00001680C4A11400160016821F48021016004
:102BE000416821F4FE0141604FF41F018160FFF74D
:102BF00033FC054805490068086010BD001002401C
:102C00000000FFF8FFFFF6FE8803000808ED00E073
:102C100010B5064B06E0044603EB0414401C24697F
:102C2000944202D08842F6D3002010BD2017002025
:102C30000149002008607047201700202DE9F04767
:102C400006460F46144699464FF001081D4D288848
:102C500069880144142902D30220BDE8F0874A465E
:102C60000020FFF7D5FF98B1484600F0AFF828885C
:102C700069884A4601440020FFF7CAFF401E4FF012
:102C8000030805EB00100671C0F8109086B112E041
:102C900068880201288805EB0011401C05EB001034
:102CA000091D001D00F02EFD2888411C2980E8E741
:102CB00004B90124012700214171C7808460C160EB
:102CC0004046CAE72017002010B50F4C02460020EE
:102CD000218863881944FFF79BFF002812D02188C0
:102CE0006288114481420AD9091A0A0104EB0011D1
:102CF000401E04EB0010091D001D00F003FD20889C
:102D0000401E208010BD0000201700202DE9F0415A
:102D10001E4F3C1D13E0607880B1FDF765FE06464E
:102D2000E56800206070217889B1012911D002295D
:102D30001BD003291ED03046FDF75AFE10343888C8
:102D400007EB0010001DA042E5D8BDE8F08101208E
:102D500060706088411E618007D22846FFF7B4FF8B
:102D6000103C3046FDF744FEE8E73046FDF740FEF4
:102D7000A847E3E73046FDF73BFEA8470028DDD132
:102D80002846FFF7A1FF103CD8E7000020170020DD
:102D900070B5FDF729FE0C4B191D0024012508E034
:102DA0008A68521C8A604E68B24201D38C604D70B2
:102DB00010311A8803EB0212121D8A42F0D8BDE8C6
:102DC0007040FDF715BE0000201700207FB50246B9
:102DD000174D288869880144FFF71AFF0446002C24
:102DE00025D02888201A01281BD9601E05EB001168
:102DF000091D1022684600F079FC2888211A0A0172
:102E000005EB0011401C05EB0010091D001D00F032
:102E100079FC2888102205EB0010001D694600F09F
:102E200065FC2888401C28806888401E68807FBD1B
:102E3000201700200148006870470000340100207E
:102E400010B50A48008880060ED5FDF7CDFD044672
:102E50000649091D09880648C9B200F0C1FB204691
:102E6000BDE81040FDF7C4BD10BD000000380140B2
:102E7000000F002010B586B0044601A8FFF7BAF88D
:102E80001A49C86840F48040C860C86820F480408F
:102E9000C860886940F004008861886940F4804017
:102EA00088611349086820F47F600860086840F46E
:102EB0000B60086004980F49B0FBF4F00880081D0F
:102EC000018842F20C0211430180018841F48071B3
:102ED0000180018841F02001018003210223252285
:102EE0000846FEF711FE06B010BD000000100240BB
:102EF000040801400838014070B505460C4604E05E
:102F000015F8010B00F008F820B1641EE4B2F7D206
:102F1000012070BD002070BD10B5002144F6206274
:102F2000084B00E0491C1C88640601D49142F9D387
:102F3000914204D20349091D0880012010BD0020E0
:102F400010BD0000003801400120704710B500247A
:102F500004E0204600F008F8641CE4B2FFF7F4FF38
:102F6000A042F6D810BD0000044900EB800201EB3E
:102F700082014968002900D008477047183A0008C4
:102F800070B504460E46802506E006EBC40205EB4C
:102F900004100821FFF780F8641EE4B2F5D270BD7A
:102FA00010B5002404E0204600F008F8641CE4B2E8
:102FB000FFF7CAFFA042F6D810BD0000084A4FF044
:102FC000FF3142F8301002EBC00200219180012352
:102FD0009371D171802101EB0010082100F08AB9B2
:102FE0005001002070B5012408490120FFF7C8FFF7
:102FF000074D08E0641EE4B204EB840055F820108D
:1030000009B120468847002CF4D170BD5001002042
:10301000183A000810B50C4681B205480068FDF763
:10302000DFFF201A80B208B1002010BD012010BDC2
:10303000900300082DE9F0410746FEF773FA0546B4
:103040006C69DFF86080C8F800704FF0006612E02D
:10305000FEF76EF92168884206D12046BDE8F041AE
:10306000104A0421FEF7B2BF08F104020C21201D12
:10307000FEF79EFF1034D6F89003A042E8D8094A24
:103080001021103A2869FEF793FFD6F890132869AB
:10309000091AFEF773FF034A1021103A2869FEF758
:1030A00095FFCAE77418002070B5FEF73BFA044696
:1030B000FDF7E2FE0546FEF73BF90A4908604FF0CE
:1030C0000060D0F890132069091AFEF757FF054AEF
:1030D00010212069FEF77AFF2846BDE87040FFF70F
:1030E000A9BF000064180020F0B50022002303707F
:1030F0000F4C012513E0530904EB830302F01F0773
:10310000D3F8076005FA07F31E4207D121F8022B16
:1031100003789B1CDBB20370642B03D8521CA3887A
:103120009342E8D8007808B10020F0BD0120F0BD3E
:10313000260000202DE9F041134B9C88641E844238
:1031400001D3C82902D90020BDE8F081440903EB6E
:10315000840400F01F07D4F807600125BD402E420B
:103160000DD14FF000669B79D6F8906300FB0360A9
:10317000FEF72CFF28B154F8070F284320600120E8
:10318000E2E70020E0E700002600002070B541796A
:10319000012901D01E2070BD134C01786170A11C63
:1031A000C2880B685A600B688268DA600B68D0F8D6
:1031B0000D209A60007B88710A68D268B2FBF0F338
:1031C000B2FBF0F500FB152008B1012000E0002063
:1031D000184488800448801C00F008F80128DAD1DF
:1031E000F1202070012070BD2400002070B504463D
:1031F000A079800701D0212070BD4FF00065D5F87F
:103200009013D5F89403401A2168C968814201D906
:10321000202070BD4FF480720021E01D00F08FFA75
:103220002068C168D5F89003BDE87040FEF7A6BEDF
:1032300006490870012805D005220021044B0846E4
:10324000FFF7FCBC4FF47A72F7E700002E01002074
:10325000C91200080020FFF7EBBF000010B5164AA6
:103260001F214020FEF718FF13484068FEF724FA9C
:10327000124CB8B1AFF21B03002132220846FFF70F
:10328000DDFC2078401CC0B22070032813D9AFF2B7
:103290003300FFF719FDFEF701F8BDE810400120EB
:1032A00000F00EB82078002805D000202070BDE87E
:1032B0001040FFF797BE10BD841800202D0100209C
:1032C0001CB5044609A106C9CDE90012FFF720FC90
:1032D000FFF766FEFFF73AFE022C02D16846FFF7C1
:1032E00013F90120FFF7A4FF1CBD00000100F80145
:1032F000530000002DE9F04105460C46174620E03A
:10330000B5F5004F03D247F69C70844202D90020E5
:10331000BDE8F08105F03F00C0F14006A64200D3B1
:103320002646F3B2A9B23A46A020FEF750FB50B1B0
:103330003544A41B37446FF07041A020FEF702FB18
:1033400008B1002CDCD134B1002211461046FDF743
:10335000C3FF0020DCE70120DAE72DE9F041054654
:103360000C4617461FE0B5F5004F03D247F69C7098
:10337000844202D90020BDE8F08105F03F00C0F191
:103380004006A64200D32646F3B2A9B23A46A02090
:10339000FEF74BFB48B13544A41B6FF07041A020F1
:1033A000FEF7D0FA08B1002CDDD134B1002211466D
:1033B0001046FDF791FF0020DDE70120DBE700006C
:1033C00070B506460C46002C40D0204600F05BF954
:1033D00006283BD906221E49204600F09AF8A06034
:1033E000204600F08EF8012830D0A0686168801D6A
:1033F000B0FBF1F201FB120021680D5C012D1DD91B
:103400000C35FA2D1AD8204600F03DF9A8421DD3FC
:10341000A168A81F084461680623B0FBF1F201FB14
:1034200012010C4A204600F051F838B12A463146C4
:10343000204600F0A2F848B1284670BDA068616837
:10344000801DB0FBF1F201FB1200A060002070BDF6
:103450005C3900086239000870B505462846FFF758
:10346000AFFF04465CB1A81DFDF76DFC38B9AC7E1A
:103470001D3428190622034900F038F9A41D2046FE
:1034800070BD00006239000870B5044640F2E635B0
:1034900004E0FEF715FB284600F004F8641E601CEB
:1034A000F7D170BD03E00A21491E0029FCD1401E5E
:1034B000411CF8D17047002806D00160426000210D
:1034C000C16081600120704700207047F0B5076837
:1034D000002F02D00AB100240FE00020F0BD4668A2
:1034E0000D19B5FBF6FC06FB1C5512F8016B7D5D52
:1034F000B54201D00020F0BD641C9C42EFD30120F6
:10350000F0BDD0E90210814201D1012070470020B6
:103510007047F0B5002806D029B122B18468002395
:10352000C668456812E00020F0BD076811F803C0C6
:103530003F5D674504D15B1C934202D15B1E07E0EF
:103540000023641CB4FBF5F705FB1744A642ECD13D
:103550002819C01AB0FBF5F105FB1100F0BDC168D8
:103560004268491CB1FBF2F302FB131180688142EF
:1035700001D101207047002070472DE9F041044639
:103580000F461546002C0CD02046FFF7BAFF012845
:1035900009D0204600F077F8A84206D20020BDE806
:1035A000F0810020FBE70020F9E7D4E901100E1AB2
:1035B000AE4200D32E46216832460144384600F020
:1035C00095F8AA1BB819216800F090F8A068616806
:1035D0002844B0FBF1F201FB1200A0600120DEE7FD
:1035E00070B504460D46002C11D02046FFF7B7FFFA
:1035F00001280ED0E16820684554E0686168401CED
:10360000B0FBF1F201FB1200E060012070BD002070
:1036100070BD002070BD2DE9F04104460F461546EF
:10362000002C07D0204600F022F8A84204D2002047
:10363000BDE8F0810020FBE76168E0680E1AAE4249
:1036400000D32E46216832460844394600F04EF831
:10365000AA1BB919206800F049F8E068616828449D
:10366000B0FBF1F201FB1200E0600120E0E7D0E9DD
:103670000212914202D9881A401E704740680844DD
:10368000801A401E7047D0E90221914203D240685F
:103690000844801A7047881A7047000006220149C2
:1036A000FFF7B9BF5C390008FDF7D0FCFDF7D0FB90
:1036B000FFF7BEFAFFF74AFAFDF78AFDFFF792FC23
:1036C000FEF754FAFFF722FBFAE710B588420BD059
:1036D00052B110F8013B11F8014BA34201D0012077
:1036E00010BD521E002AF4D1002010BD884208D01F
:1036F000002A06D011F8013B00F8013B521E002AB7
:10370000F8D1704788420AD2002A07D011F8013B4D
:1037100000F8013BA2F10102002AF7D17047FDD960
:1037200000EB020301EB0200002AF7D010F8011DA4
:1037300003F8011DA2F10102002AF7D17047002A07
:1037400004D000F8011B521E002AFAD17047000075
:1037500006220149FFF75FBF623900080000C1C0BF
:1037600081C1400101C3C003800241C201C6C0063D
:10377000800741C70005C1C581C4400401CCC00C0D
:10378000800D41CD000FC1CF81CE400E000AC1CACD
:1037900081CB400B01C9C009800841C801D8C018BD
:1037A000801941D9001BC1DB81DA401A001EC1DE3D
:1037B00081DF401F01DDC01D801C41DC0014C1D42D
:1037C00081D5401501D7C017801641D601D2C0124D
:1037D000801341D30011C1D181D0401001F0C0301D
:1037E000803141F10033C1F381F240320036C1F63D
:1037F00081F7403701F5C035803441F4003CC1FC0D
:1038000081FD403D01FFC03F803E41FE01FAC03ACC
:10381000803B41FB0039C1F981F840380028C1E8FC
:1038200081E9402901EBC02B802A41EA01EEC02E3C
:10383000802F41EF002DC1ED81EC402C01E4C0242C
:10384000802541E50027C1E781E640260022C1E24C
:1038500081E3402301E1C021802041E001A0C0605C
:10386000806141A10063C1A381A240620066C1A63C
:1038700081A7406701A5C065806441A4006CC1AC0C
:1038800081AD406D01AFC06F806E41AE01AAC06ACC
:10389000806B41AB0069C1A981A840680078C1B8BC
:1038A00081B9407901BBC07B807A41BA01BEC07E3C
:1038B000807F41BF007DC1BD81BC407C01B4C0742C
:1038C000807541B50077C1B781B640760072C1B24C
:1038D00081B3407301B1C071807041B00050C1909C
:1038E000819140510193C053805241920196C0563C
:1038F000805741970055C19581944054019CC05C0C
:10390000805D419D005FC19F819E405E005AC19ACB
:10391000819B405B0199C059805841980188C048FB
:1039200080494189004BC18B818A404A004EC18E3B
:10393000818F404F018DC04D804C418C0044C1842B
:10394000818540450187C047804641860182C0424B
:10395000804341830041C18181804040F1F1F1F217
:10396000F1F1F2F2F2F1F2F2C0000000000000000A
:103970000000000081150008C100000000000000E8
:103980000000000041160008C9000000000000000F
:103990003326000800000000F400000000000000D2
:1039A0000926000809160008F500000000000000C4
:1039B000C125000800000000F80000000000000021
:1039C0000925000831150008F0020008000400086D
:1039D000300400083C040008005000084050000873
:1039E000F002000800040008300400083C0400084D
:1039F0000060000840600008F002000800080008AD
:103A0000300800083C08000800680008406800080A
:103A10000500050005000500E12A0008000000007F
:103A20000000000068390008B92B000804030207F1
:103A30000202010254F139CDE3A3A4325C3A00083A
:103A40000000002060010000280900087C3A0008FE
:103A500060010020A8200000640900085502040647
:103A600008950102030499010203040607080907E7
:0C3A7000FFEF016418002001110228A0E3
:04000005080008EDFA
:0C6004001C00000030750000B6D7010041
:046040005300A55A0A
:020000040800F2
:10640000083100205D6800086568000867680008BA
:10641000696800086B6800086D68000800000000EB
:106420000000000000000000000000006F6800088D
:10643000716800080000000073680008B77E00085B
:1064400077680008776800087768000877680008B0
:1064500077680008776800080D92000839920008F4
:10646000DD90000877680008776800087768000802
:106470007768000877680008776800087768000880
:106480007768000877680008776800087768000870
:106490007768000877680008776800087768000860
:1064A0007768000877680008776800087768000850
:1064B000DF920008776800080593000877680008F5
:1064C0007768000877680008776800087768000830
:1064D00077680008EB7F0008776800087768000895
:1064E00097790008776800087768000800F002F8DC
:1064F00000F04AF80AA090E8000C82448344AAF114
:106500000107DA4501D100F03FF8AFF2090EBAE811
:106510000F0013F0010F18BFFB1A43F001031847D7
:1065200034A6000054A600000A4410F8014B14F0F1
:106530000F0508BF10F8015B240908BF10F8014BD4
:106540006D1E05D010F8013B6D1E01F8013BF9D11D
:10655000641E03D0641E01F8015BFBD19142E4D3B9
:10656000704700000023002400250026103A28BFB1
:1065700078C1FBD8520728BF30C148BF0B607047B5
:106580001FB51FBD10B510BD09F0D6FB1146FFF7B2
:10659000F7FF01F07DFD09F0F4FB03B4FFF7F2FF14
:1065A00003BC09F0FBFB000072B6704762B670478F
:1065B00080F30888704780F310887047EFF31080ED
:1065C00072B67047B0FA80F0704700000CB500203A
:1065D000019000909848006840F480309649086027
:1065E00000BF9548006800F4003000900198401CFE
:1065F0000190009818B90198B0F5A06FF1D18E48BC
:10660000006800F4003010B10120009001E000208B
:1066100000900098012844D18848006840F010009C
:10662000864908600846006820F0030008600846B4
:10663000006840F0020008607F4840687E4948607A
:106640000846406848600846406840F480604860FA
:106650000846406820F47C1048600846406840F4D2
:10666000E81048600846006840F08070086000BF8D
:106670007148006800F000700028F9D06E4840684A
:1066800020F003006C4948600846406840F0020072
:10669000486000BF6848406800F00C000828F9D145
:1066A00059E06648006840F01000644908600846F8
:1066B000006820F0030008600846006840F002000F
:1066C00008605D4840685C4948600846406848602A
:1066D0000846406840F4806048600846006820F43E
:1066E000803008600846006840F00100086000BF84
:1066F0005148006808B9012000E0002000F00200C5
:106700000028F5D14C48406820F480304A49486060
:106710000846406840F4601048600846006840F051
:106720008070086000BF4448006800F000700028D6
:10673000F9D04148406820F003003F4948600846CE
:10674000406840F00200486000BF3B48406800F0ED
:106750000C000828F9D10CBD10B53748006840F08E
:10676000010035490860084640683549084032490B
:10677000486008460068334908402F4908600846C9
:10678000006820F4802008600846406820F4FE007D
:1067900048604FF41F008860FFF718FF2A48006820
:1067A0002A49086010BDF0B50446002500230026E4
:1067B00000222148406800F00C0525B1042D06D0C8
:1067C000082D2BD107E0224A0020087028E0204A3B
:1067D0000120087024E01848406800F4701316483F
:1067E000406800F4803616B10120087001E00020F6
:1067F0000870022000EB93431EB9164803FB00F219
:106800000BE00D48406800F4003018B1114803FB5C
:1068100000F202E00E4803FB00F201E00C4A00BF68
:1068200000BF05484068C0F303100B4F3D5CEA40D1
:1068300022600120F0BD0000001002400020024054
:106840000000FFF8FFFFF6FE9003000808ED00E0EF
:1068500000127A0000093D0000000020094880472E
:1068600009480047FEE7FEE7FEE7FEE7FEE7FEE732
:10687000FEE7FEE7FEE7FEE704480549034A054B4D
:106880007047000059670008ED64000808250020E3
:10689000083100200825002008B54FF400510220DF
:1068A00000F07FF9D0B91B4801680068401C194A04
:1068B000106029B9184B14220021022004F0D4FCE6
:1068C00014480068642811D114A0006800900220C8
:1068D00005F039FB684604F006FF07E00D48006844
:1068E00020B100F004F800200A49086008BD10B586
:1068F00008229102022000F00DF94FF4005102200D
:1069000000F036F9044B4FF4FA620021022004F043
:10691000ABFC10BD10000020996800080090010039
:1069200079487A4948607A484860704777480069F2
:1069300040F080007549086170477448C06800F0F5
:10694000200020B120207149C8600120704700203C
:10695000FCE7014600E0491E29B16C48C06800F020
:1069600001000028F7D109B9012070476748C068C5
:1069700000F0140020B11420644AD0600120F4E734
:106980000020F2E770B505464FF40050FFF7E1FF35
:106990000446B4B95D48006940F002005B490861F3
:1069A00008464561006940F0400008614FF400501E
:1069B000FFF7CFFF04465548006920F00200534915
:1069C000086114B9FFF7B9FF0446204670BD70B5E1
:1069D00005460E464FF44050FFF7BBFF04468CB906
:1069E0004A48006940F00100484908612E804FF490
:1069F0004050FFF7AEFF04464448006920F0010014
:106A0000424908611CB9FFF798FF00B101242046F4
:106A100070BD70B505460C4616464FF44050FFF762
:106A200098FFF0B93948006940F001003749086122
:106A30000EE030882880B61CAD1CA41E4FF44050D8
:106A4000FFF787FF18B9FFF778FF08B902E001E008
:106A5000002CEED100BF2D48006920F001002B4929
:106A600008610CB9012070BD0020FCE710B50024BE
:106A70004FF44050FFF76DFFD8B9FFF751FF23489F
:106A8000006940F02000214908610846006940F093
:106A9000400008614FF44050FFF75BFF18B9FFF763
:106AA0004CFF00B101241948006920F0200017496B
:106AB0000861204610BD70B504460D4600264FF40F
:106AC0004050FFF746FFE0B9FFF72AFF0F48006983
:106AD00040F010000D4908610846006940F0400090
:106AE000086125704FF44050FFF733FF18B9FFF7E6
:106AF00024FF00B101260548006920F02000034969
:106B00000861304670BD0000230167450020024047
:106B1000AB89EFCDF0B503461446254D05EB832236
:106B2000244DAD699E1C0127B7403D43214EB56100
:106B300000201AE001F00105ADB1C50852F825505A
:106B40004607F70E0F26BE40B543C60842F826504A
:106B5000C50852F825504607F60E04FA06F63543E6
:106B6000C60842F826504910401C0029E2DCF0BD5E
:106B700002460B460E4800EB8221C8681843C860E5
:106B8000C86880B270470A4B03EB8022D3688B43FE
:106B9000D3607047064B03EB8022D3684B40D36031
:106BA00070470246024800EB82239868084070470D
:106BB0000008014000100240002107E0052101E02B
:106BC0004A1E91B20029FBDC421E90B20028F5DC7F
:106BD000704710B50322C0210120FFF79BFFC021A1
:106BE0000120FFF7C5FF032220210120FFF792FFBC
:106BF00020210120FFF7BCFF10BD10B5802101202E
:106C0000FFF7B6FF40210120FFF7B2FF0220FFF798
:106C1000D3FF80210120FFF7B6FF0220FFF7CCFF52
:106C200040210120FFF7AFFF10BD10B580210120EA
:106C3000FFF7A9FF0220FFF7BFFF40210120FFF768
:106C400097FF0220FFF7B8FF80210120FFF790FF98
:106C50000220FFF7B1FF10BD10B50446402101200E
:106C6000FFF791FF0220FFF7A7FF24B18021012049
:106C7000FFF77EFF03E080210120FFF784FF022061
:106C8000FFF79AFF40210120FFF772FF0220FFF774
:106C900093FF40210120FFF776FF10BD10B50024BF
:106CA000082280210120FFF735FF80210120FFF716
:106CB0005FFF0220FFF780FF40210120FFF758FF10
:106CC0000220FFF779FF10E0601C80B20446B0F5A7
:106CD000FA7F0ADD032280210120FFF71BFF8021BC
:106CE0000120FFF745FF002010BD80210120FFF7A4
:106CF00058FF0028E8D140210120FFF744FF02207F
:106D0000FFF75AFF032280210120FFF703FF8021B4
:106D10000120FFF72DFF0220FFF74EFF0120E3E7E0
:106D200070B5044640210120FFF72DFF0220FFF738
:106D300043FF002520E004F0800020B180210120E5
:106D4000FFF716FF03E080210120FFF71CFF60061C
:106D5000040E0220FFF730FF40210120FFF708FF5B
:106D60000220FFF729FF40210120FFF70CFF02203E
:106D7000FFF722FF681CC5B2082DDCDBFFF78EFF92
:106D800070BD70B506460024082280210120FFF75F
:106D9000C1FE80210120FFF7EBFE00251BE0402112
:106DA0000120FFF7F0FE0220FFF706FF402101203F
:106DB000FFF7DEFE0220FFF7FFFE6006040E8021D3
:106DC0000120FFF7EEFE08B1601CC4B20220FFF7FD
:106DD000F3FE681CC5B2082DE1DB40210120FFF75E
:106DE000D2FE0220FFF7E8FE032280210120FFF7F8
:106DF00091FE80210120FFF7BBFE0220FFF7DCFEA1
:106E00003046FFF729FF204670BD70B505460C4699
:106E100000BFFFF7F2FE2846FFF782FF10B9601EA1
:106E2000041EF6D1FFF701FF0CB1012070BD002058
:106E3000FCE72DE9F04107460E4615461C46FFF7D4
:106E4000DCFE3846FFF76CFFF0B13012FFF768FF49
:106E5000D0B1F0B2FFF764FFB0B1FFF7CEFE47F05C
:106E60000100FFF75DFF78B106E00020FFF789FF22
:106E700005F8010B601EC4B2012CF6DC601EC4B222
:106E80000120FFF77EFF2870FFF7CFFE14B9012025
:106E9000BDE8F0810020FBE72DE9F04107460D46F3
:106EA00016461C4620210120FFF76DFEFFF7A5FEC8
:106EB0003846FFF735FF98B12812FFF731FF78B158
:106EC000E8B2FFF72DFF58B107E016F8010BFFF706
:106ED00027FF00B903E0601EC4B2002CF5DC00BF40
:106EE000FFF7A3FE20210120FFF742FE14B9012085
:106EF000BDE8F0810020FBE72DE9F04107460D4693
:106F000016461C4620210120FFF73DFEFFF775FEC7
:106F10003846FFF705FF90B12812FFF701FF70B167
:106F2000E8B2FFF7FDFE50B106E03046FFF7F8FE8D
:106F300000B903E0601EC4B2002CF6DC00BFFFF70E
:106F400074FE20210120FFF713FE14B90120BDE8D3
:106F5000F0810020FBE770477047704770B5054629
:106F60000C46FFF7DDFC03E0A4F5806405F58065C1
:106F70002846FFF707FD10B1B4F5806FF4D8FFF78E
:106F8000D5FCB4F5806F01D8012070BD0020FCE76E
:106F90002DE9F04106460C46174604F0010000B109
:106FA000641CFFF7BDFC3A4621463046FFF731FD31
:106FB0000546FFF7BBFC2846BDE8F081034604E028
:106FC00018681060121D1B1D091F0029F8D101202F
:106FD00070472DE9F04FADF2044D80460D469246C4
:106FE00005F0010000B16D1CFFF79AFCB8F1006FCD
:106FF00002D3B8F1016F04D300200DF2044DBDE8B7
:10700000F08FA8F1006B4FEA9B26CBF30909C9F575
:107010008064A54200D8ACB24DE04FF0006101EBB6
:1070200086206A464914FFF7C9FF002708E009EBEC
:1070300007001DF80000FF2800D003E0781C87B28D
:10704000A742F4DB00BFA7421EDA4FF0006101EB5C
:107050008620FFF797FCCDF80004002707E01AF818
:10706000070007EB09010DF80100781C87B2A74261
:10707000F5DB4FF0006101EB86206A464914FFF70B
:10708000C8FCCDF8000406E0524621464046FFF712
:10709000C0FCCDF80004A54200D10DE0761C4FF0F5
:1070A0000009A244A0442D1BB5F5806F02D94FF40E
:1070B000806400E0ACB2B0E700BFFFF737FCDDF85A
:1070C00000049AE71CB5274903C9CDE90001264809
:1070D000406940F04000244948612448806840F0FD
:1070E0000100224988600846007940F0FF000871DD
:1070F0001F4800681F4988421CD01D49083908688C
:107100001A49896841F00101184A91601A490968D1
:1071100011601949091D096811601749083109688A
:10712000116011460860096801916A4608211048FB
:10713000FFF74FFF1CBD4FF0FF3070474FF48060EA
:1071400070470D480838008870470B49096801608E
:107150000949091D096841600749083109688160CA
:1071600070470000D40301080010024000300240C4
:107170003C040008A542BD5AE8F7FF1F08B10121F1
:1071800000E00021FE4A11707047FE487047FE483B
:107190000078704770B505460C464FF480510120C9
:1071A000FFF7F1FC284600F099FC204600F096FC21
:1071B00006464FF480510120FFF7DAFC304670BDDF
:1071C00010B5F248006820F48060F049086002229F
:1071D000C9140120FFF79EFC0222D1020120FFF713
:1071E00099FC042211020120FFF794FC04220221E1
:1071F0000120FFF78FFC4FF480610120FFF7B8FCFE
:1072000002210120FFF7B4FC00F093FC042000F001
:10721000E3FC10BD0120DE490870704710B5052160
:107220008720FFF7B7FF02218E20FFF7B3FF02216F
:107230008820FFF7AFFF00218820FFF7ABFF132165
:107240008520FFF7A7FF80218620FFF7A3FF0021FD
:107250000320FFF79FFF00210420FFF79BFFCB488F
:10726000006840F48060C949086010BD10B5C74887
:10727000006820F48060C549086000218E20FFF777
:1072800089FF01218720FFF785FF00218520FFF777
:1072900081FF00218620FFF77DFF00210320FFF7FB
:1072A00079FF00210420FFF775FF022002F0BEFEE7
:1072B00010BD10B50446B74A2146022002F078FFFF
:1072C00010BD10B500212620FFF764FF0446B24828
:1072D0000078A04203DAB0480078201A02E0AE48F5
:1072E0000078001B08284EDA6410AB48007804EBE5
:1072F0006000A94908700846C078401CC0B2C87038
:10730000142860DD084600780A2803DB0846007868
:10731000DC2803DD0420FFF7CCFF30E09E48007836
:1073200014309949087008460178A720FFF732FF0A
:107330009A480068F8B100F0B3FD9849096888429E
:1073400005D200F0ADFD95490968081A04E000F087
:10735000A7FD92490968401A9149884206D2042043
:10736000FFF7A7FF00208D49086008E000F098FDB6
:107370008A49086003E000F093FD88490860002016
:107380008849086010BD84484078A04203DA8248EA
:107390004078201A02E080484078001B32280DDA3D
:1073A0007D488078401CC0B27B49887004280ADD83
:1073B000084604700020C870887004E07648447065
:1073C00000207549887077480068401C754908603E
:1073D000B0F5167F06D9002008600420FFF769FF8A
:1073E0000020CFE70120CDE710B5FFF7E9FE4FF40D
:1073F00080510120FFF7BCFB4FF400610120FFF733
:10740000B7FB022002F012FE4FF400610120FFF7EB
:10741000BAFB322002F00AFE00210320FFF7BAFE79
:1074200000210420FFF7B6FE80218720FFF7B2FE7F
:10743000022002F0FBFD00218720FFF7ABFE0021B8
:107440008520FFF7A7FE00218620FFF7A3FE00217D
:107450000320FFF79FFE00210420FFF79BFE792108
:107460008920FFF797FE06218A20FFF793FEEA2185
:107470008B20FFF78FFEEA218C20FFF78BFEFC218B
:107480008D20FFF787FE00218E20FFF783FE464800
:1074900001789C20FFF77EFE434841789D20FFF74E
:1074A00079FE414881789E20FFF774FE3E48C178FE
:1074B0009F20FFF76FFE3C480179A020FFF76AFE8E
:1074C00039484179A120FFF765FE37488179A2202C
:1074D000FFF760FE3448C179A320FFF75BFE324816
:1074E000017AA420FFF756FE2F48417AA520FFF726
:1074F00051FE2D48817AAA20FFF74CFEAC21B02026
:10750000FFF748FE0021B220FFF744FE0221B3201E
:10751000FFF740FE1021B420FFF73CFE2821B520E4
:10752000FFF738FE2D21B620FFF734FED421B72017
:10753000FFF730FE0021B820FFF72CFE0021B92014
:10754000FFF728FE4221BA20FFF724FE4521BB2089
:10755000FFF720FE5321BC20FFF71CFE5421BD2065
:10756000FFF718FE4221BF20FFF714FE4521C0207F
:10757000FFF710FE5321C120FFF70CFE542115E048
:1075800017000020840100201600002000040140A4
:1075900015000020E97300082000002028000020CA
:1075A000A068060024000020DC030108C220FFF7C9
:1075B000F1FDFF21C320FFF7EDFDFF21C420FFF700
:1075C000E9FDFF21C520FFF7E5FDFF21C620FFF7FC
:1075D000E1FDF648C17AD820FFF7DCFDF348017BD6
:1075E000E920FFF7D7FDF148417BEE20FFF7D2FD00
:1075F000EE48817BEF20FFF7CDFDEC48C17BF0200A
:10760000FFF7C8FDE948017CF120FFF7C3FDE7481B
:10761000417CF220FFF7BEFD5221F520FFF7BAFDB5
:1076200004F03AFA493800EB80004006040E214687
:10763000F920FFF7AFFD0A21FA20FFF7ABFD00218B
:10764000F320FFF7A7FD0021F420FFF7A3FDD748A3
:10765000C17CF620FFF79EFDD448017DF720FFF79F
:1076600099FD0721ED20FFF795FDD1480178A7206E
:10767000FFF790FDCF4B4FF4C8720021032003F0B9
:10768000F3FD1E21FC20FFF785FD0C21FD20FFF7F7
:1076900081FD3221FE20FFF77DFD01220A211046E7
:1076A00000F0F2FA022328220021184600F0CAFA5C
:1076B000C148006820F48060BF490860FFF7D6FD2C
:1076C000FFF7ACFDFFF7A6FD10BD10B50321882024
:1076D000FFF760FD08218820FFF75CFD01218E2067
:1076E000FFF758FD10BD2DE9F04106460C469046C7
:1076F0000025FFF7BBFDFFF7E8FF2146BE20FFF79F
:1077000049FD1DE04FF4805503E0142002F082FC97
:107710006D1E00210320FFF73DFD00F0200008B999
:10772000002DF2D1002707E016F8011BFF20FFF71C
:1077300031FD601EC4B27F1C322F01D2002CF3D168
:10774000002CDFD109218720FFF724FD4FF4C870FA
:1077500002F060FC4FF4805506E0681E051E03D160
:107760000420FFF7A6FD08E000210320FFF712FD2B
:1077700000F0040008B9002DEFD100BFFFF776FD3F
:10778000FFF74CFDBDE8F0812DE9F04105460F46BD
:107790002C4604F11206322F2FDC204605F0EDFDB9
:1077A00010B10020BDE8F081E07CB2280FD1F07864
:1077B000BB280CD102F0E3FEE168884207D13079A2
:1077C000642804DA7D48017830797D4A115402F04A
:1077D000D6FEE16888420AD002F0D4FE804678489E
:1077E00010F80800401C764901F8080000BF207D11
:1077F0001730C1B2204605F098FD0120D2E72DE9EF
:10780000F04F91B080460F464FF000094FF0010A4B
:10781000B1E04846411C01F0FF09052806DD0520BE
:10782000FFF747FD002067490870ACE00021032006
:10783000FFF7B0FC044600210420FFF7ABFC05462F
:1078400005F0800028B100212620FFF7A3FC5B494A
:10785000087004F0010018B100205A49087092E045
:1078600004F0100020B35748007818B9404602F0E1
:107870003BFA824600260BE000217F20FFF78AFCBE
:1078800083465946404602F07CFD8246701CC6B2D3
:10789000322EF1DB4B480078CD2803DD002049492A
:1078A000087070E04748007832304649087000BFE1
:1078B00004F0020000285ED000214B20FFF76AFC94
:1078C000044611E000217F20FFF764FC3D49097860
:1078D000322291FBF2F302FB131101AA50543948F2
:1078E0000078401C3749087036480078A042E9DB30
:1078F000172C2EDB3448007860B1214601A8FFF731
:1079000043FF38B900202F490870FFF787FC11B0FA
:10791000BDE8F08F322C03DC404602F0E5F98246E8
:10792000322094FBF0F100FB114028B1322094FB8F
:10793000F0F100FB114000E032200646324601A97A
:10794000404602F0ABFC8246404602F0D5F9824642
:1079500006E0224601A9384602F047FA00F0FF0A85
:10796000002018490870BAF1000F04D10022032149
:10797000022002F01DFC4FF480610120FFF711F995
:1079800000283FF446AF00BF0E48007808B9FFF763
:1079900045FC00BFBBE710B50C490D48FFF72FFFB2
:1079A0004FF4806004491431086010BDDC03010805
:1079B00016000020C37200080004014014000020DB
:1079C000840100201800002017000020540D002022
:1079D0001403002010B504463948008870B9082CFB
:1079E00000D3012400F05CFA364931F81410B0FBE2
:1079F000F1F201FB1200801C3149088002210120B4
:107A0000FFF7CFF8F0B92E480088401E80B22C490D
:107A1000088070BB2C480088401C80B22A4908802E
:107A2000642808DD00200880284B4FF4C87200212C
:107A3000032003F019FC0020214908802449088014
:107A4000012010BD00201E4908801F4908802048E1
:107A50000088401C80B21E490880B0F57A7F08DD9E
:107A600000200880194B4FF4C8720021032003F056
:107A7000FBFB0020E5E770B506460C4615461548A9
:107A80000078012819D12846FFF7A4FFA8B10020EB
:107A900010490870104BC8220021084603F0E4FB8F
:107AA000172C03DBB61DA4F10C00C4B22A462146F4
:107AB0003046FFF718FE012070BD0020FCE70000F3
:107AC0001E000020F20301081C000020C372000801
:107AD0001A0000201500002015720008014600223F
:107AE00008E01046531C9AB24FF6FE73984201DB31
:107AF000002070474348008800F002000028F0D0C2
:107B00004048001D0180002208E01046531C9AB234
:107B10004FF6FE73984201DB0020EAE739480088FF
:107B200000F001000028F0D03648001D0088C0B2E7
:107B3000DFE700B53448006940F48040324908610D
:107B40000846006920F4804008610846806940F0DA
:107B5000080088610846C06940F48040C8612B482D
:107B60000068C0F3130029490860084600682849E6
:107B700008432649086025480830006840F4604002
:107B80002249083108601F48083800881D49083913
:107B900008800846008840F4007008800846008885
:107BA00040F4807008800846008840F00400088097
:107BB0000846008808800846008840F018000880C1
:107BC0000846008808800846008840F04000088089
:107BD000FF20FFF783FF00BD00F0070009490839C7
:107BE00009884FF6C7721140064A083A11801146BB
:107BF000098841EAC00111801146098841F040011D
:107C0000118070470838004000100240040C014009
:107C10000000B0BB484A0A400243484B1A60704714
:107C20000146072323EA01021202444B1B1D186878
:107C30004FF6FF031840424B184310433F4B1B1DA8
:107C4000186070472DE9F0410746884614461D46E6
:107C500000262846FFF7E4FFC5F1040007FA00F606
:107C60000F20284100EA0800064336013548065532
:107C700004F01F01012088406111890001F1E02119
:107C8000C1F80001BDE8F08170B504460B46CE177F
:107C900001EB9676C6F38700CE1701EB9676B61009
:107CA000A1EB8606B606350E274B9B6943F0010310
:107CB000254EB3614FEAB63353F820300F26AE405D
:107CC000B343224E46F82030334653F8203004FAAE
:107CD00005F61E431D4B43F820601D4B1B68012613
:107CE0008E4033431A4E336002F0010343B1184B08
:107CF0000C331B6801268E403343154E0C3633601F
:107D000002F0020343B1124B08331E6801238B407B
:107D10001E430F4B08331E6070BD70B504462546E8
:107D200020680C490840B0F1005F04D12868FEF7D4
:107D30003FFC6868804770BD80FFFF1F08ED00E0D2
:107D40000000FA0500E400E00010024008000140D5
:107D5000000401400000FE2F10B505F047FE00F0C2
:107D60007FF8FFF7AFF9FEF734FFFFF73DFB10BDDB
:107D7000014636480068364A90422DD13348001DEE
:107D80000068B0F1FF3F27D03048001D006818B3ED
:107D90002E48001D0068B0F1443F1DD02B48001D47
:107DA0000068B0F1883F17D02848001D0068294AB4
:107DB000904211D02548001D0068244A08321268FC
:107DC000D243904208D12148001D006888420AD061
:107DD0001E48001D006870471F480068884202D096
:107DE0001D480068F7E70020F5E7184800681849C3
:107DF000884229D11548001D0068B0F1FF3F23D00B
:107E00001248001D0068F8B11048001D0068B0F16C
:107E1000443F19D00D48001D0068B0F1883F13D0D1
:107E20000A48001D00680B4988420DD00748001D14
:107E30000068064908310968C943884204D10348EB
:107E4000001D0068054948607047000030040008C4
:107E50005A3CC3A542455354F0F7FF1FB41300200A
:107E60001CB5002001900090694601A8FEF79BFC1C
:107E70004FF0E020006920F004004FF0E02108619D
:107E80004FF4FA510198B0FBF1F04FF0E021486156
:107E9000002088610320086100200F4908601CBD94
:107EA0000D48006870470C4800680C49086070472E
:107EB0000A480068704710B5074800680849B0FBD9
:107EC000F1F201FB12000449086008460068401CFA
:107ED000086003F0D5FA10BD2C000020300000200F
:107EE0000084D71710B5082211030220FEF712FEF6
:107EF0004FF400410220FEF73BFE002001490860DC
:107F000010BD00003400002070B505460C463E4808
:107F1000C06840F480403C49C8600846C06820F40E
:107F20008040C8600846806940F0040088610846C7
:107F3000806940F4804088613448006820F47F60A4
:107F4000324908600846006840F40B600860304819
:107F50006843B0FBF4F02F490880081D008842F206
:107F60000C0108432B49091D08800846008840F48D
:107F7000807008800846008840F0200008800223B6
:107F8000252203210846FFF75DFE70BD0246002151
:107F900000E0491C1F480838008800F0400018B96C
:107FA00044F620608142F4D344F62060814204D23A
:107FB0001848001F0280012070470020FCE770B5C0
:107FC00004460D46164609E014F8010BFFF7DEFFE4
:107FD00020B94FF416514820FFF796FF281EA5F14F
:107FE0000101CDB2F0D1012070BD10B509480838AB
:107FF000008800F0200030B10648001F0088C1B2A0
:10800000054802F0BEF910BD00100240040801400E
:1080100040420F00083801401403002010B54AF612
:10802000AA201A49086089140020FEF7B3FD10BD8C
:1080300070B505460C4645F255501449086008468F
:10804000456084604AF6AA2008604CF6CC4008607F
:10805000022289140020FEF75DFDAFF23F034FF4CA
:1080600048720021022003F0FFF870BD10B5AFF296
:10807000530003F06BF910BD10B5044604229102C1
:108080000020FEF747FD012010BD00000030004039
:1080900003F090F8FFF760FE4FF4FA610520FFF758
:1080A000C7FF01F09BFDFEF756FFFEF720FCFFF730
:1080B00019FF00F017F809E00549064801F06CFCCB
:1080C0000549064801F068FC03F0A5F9F4E7000053
:1080D000340B002014030020740E0020540D0020E7
:1080E0000420704710B504240B49042003F0A2FFBC
:1080F0000FE0601EC0B2044600EB8000074951F853
:10810000200030B104EB84000A4652F820102046CB
:108110008847002CEDD110BDE8010020FC030108C8
:1081200070B504460D4644B1618820780822FEF7F8
:10813000F1FC61882078FEF71BFD45B1698828783D
:108140000322FEF7E7FC69882878FEF71CFD70BD66
:108150002DE9F04105460E4617461C466088FEF79D
:1081600031FAC0F11F0000F0FF0802233A46314601
:108170002846FFF767FD207801224146FFF784FD7E
:108180003E480068618888433C4908603B48143099
:10819000006861880843394914310860BDE8F081FE
:1081A0002DE9F04105460E4617461C460CB9BDE8C0
:1081B000F0813348844206D13248806940F400603F
:1081C0003049886141E0B4F1804F06D12D48C06943
:1081D00040F001002B49C86137E02B48844206D1AA
:1081E0002848C06940F002002649C8612DE02748B0
:1081F000844206D12348C06940F004002149C86187
:1082000023E02348844206D11E48C06940F008009C
:108210001C49C86119E01F48844206D11948C06949
:1082200040F010001749C8610FE01B48844206D196
:108230001448C06940F020001249C86105E01148A7
:10824000806940F400500F4988614CF25030A0859D
:1082500047202085208820F00100208002233A4614
:1082600031462846FFF7EEFC208A20F001002082EC
:10827000A08920F00100A08100BF98E70004014020
:10828000002C0140001002400004004000080040A3
:10829000000C0040001000400014004010B50446DF
:1082A000618820780322FEF735FC61882078FEF78C
:1082B0006AFC10BD10B5044661882078FEF758FCB2
:1082C00010BD10B5044661882078FEF75CFC10BD37
:1082D00010B5044661882078FEF75CFC10BD0000F4
:1082E00010B5044661882078FEF75BFC08B90120D0
:1082F00010BD0020FCE73D494160022101720021D0
:10830000417281728181704710B50446226851889C
:1083100010780822FEF7FEFB226851881078FEF7DD
:1083200027FC2046FFF7E7FF10BD10B50446207A72
:10833000012826D0022804D0032834D004284BD1A9
:108340000CE0D4E90001884710B10420207201E05C
:108350000220207200206072A07244E0607A401D0A
:108360006072607A05280BDBD4E90001884710B100
:108370000120207201E0022020720020A0816072A2
:1083800031E0D4E90001884750B1A189481CA0819F
:10839000C82902D10220A07204E00020A07201E0EE
:1083A000032020721FE0607A401D6072607A052809
:1083B00011DBD4E90001884710B10120207208E0E8
:1083C00002202072A089C82801DA0120A0720020B2
:1083D000A0810020607206E00220207200206072FE
:1083E000A072A08100BF00BF10BD0000E1820008A4
:1083F00010B5002400BF22E0D64800EB840004EB57
:108400004401D54A42F83100002004EB440102EB5C
:10841000C101087404EB440102EBC1014874CF4868
:1084200030F8140004EB440102EBC101488204EB74
:10843000440102EBC100FFF767FF601CC4B2032CCC
:10844000DAD310BD2DE9F0470746884616461D468B
:10845000089CA87A012802D002284DD138E0626831
:1084600051881078FEF79DFB30B100230122414670
:10847000384602F02FF805E001231A4641463846F7
:1084800002F028F80120287401231A4631463846A4
:1084900002F020F8B248201A4421B0FBF1F0401C51
:1084A00000EB8000AF4901EB40008079012803D147
:1084B000206C8047606B8047A948201A4421B0FB9C
:1084C000F1F0401C00F0FF09484603F0DEFB14E029
:1084D00002202874022301223146384601F0FAFFB7
:1084E0009F48201A4421B0FBF1F0401C00F0FF0926
:1084F000484603F0CAFB00E000BF00BFBDE8F087BC
:108500002DE9F04106460F4615461C46A07A012883
:1085100002D0022825D11BE0607C40B100206074AD
:10852000002301223946304601F0D4FF07E0012044
:10853000607401231A463946304601F0CBFF012012
:10854000207401231A462946304601F0C3FF09E092
:1085500002202074022301222946304601F0BAFF8E
:1085600000E000BF00BFBDE8F081002000210CE06A
:1085700001EB4102784B03EBC202927A1AB101225D
:108580008A400243D0B24A1CD1B20329F0D37047CB
:1085900038B500247048FFF7C8FE6F481830FFF761
:1085A000C4FE6D483030FFF7C0FEFFF7DEFF044623
:1085B000002C7DD00020684908740021664880F8AE
:1085C000281080F84010007D60BB634890F82C00B4
:1085D00040BB0121084605F0F1F90121022005F018
:1085E000EDF95F485C4B0122022100900320FFF768
:1085F00029FF5B484430584B183303220421009074
:108600001046FFF71FFF042C0BD108220321022084
:1086100000F0D1F9504B3033052206210320FFF73B
:108620006FFF93E04C48007D60BB0121084605F0D8
:10863000C5F94B48484B0122022100900320FFF767
:1086400001FF022C02D0042C1AD10CE003220221DB
:10865000052000F0B0F9404B1833032204211046E6
:10866000FFF74EFF0DE002220321052000F0A3F9E1
:10867000394B3033052206210320FFF741FF00E08C
:1086800000BF63E0344890F82C0078BB0121022041
:1086900005F094F9324844302F4B1833032204215B
:1086A00000901046FFF7CEFE012C04D0042C00E011
:1086B0004FE019D10BE003220121042000F07BF9E7
:1086C000254B012202210320FFF71AFF0DE00122B2
:1086D0000321042000F06FF91F4B303305220621DF
:1086E0000320FFF70DFF00E000BF2FE0FFE7012CA4
:1086F00004D0022C0ED0042C26D118E00622012131
:10870000104600F058F9144B012202210320FFF714
:10871000F7FE1AE005220221062000F04CF90E4B6C
:108720001833032204211046FFF7EAFE0DE004226D
:108730000321062000F03FF9074B303305220621C4
:108740000320FFF7DDFE00E000BF00BF032003F0C1
:108750009CFA38BD4C04010810020020580401089E
:108760008C020020E801002010B5002400BF2BE09F
:10877000A94800EB8400A94901EB0411086004EB4F
:108780004400A74951F82000A44901EB04114860B6
:1087900004EB4400A24901EB800040689F4901EBD3
:1087A0000411886004EB44009D4901EB800080685F
:1087B0009A4901EB0411C860984901EB041108685B
:1087C000FFF76CFD601CC4B2032CD1D310BD10B5F3
:1087D00092490868FFF76EFD10BD10B58F49086813
:1087E000FFF76FFD10BD10B58C490868FFF770FDED
:1087F00010BD10B589490869FFF75CFD10BD10B5C3
:1088000086490869FFF75DFD10BD10B58349086909
:10881000FFF75EFD10BD10B58049086AFFF74AFDFD
:1088200010BD10B57D49086AFFF74BFD10BD10B5AE
:108830007A49086AFFF74CFD10BD10B579480078F9
:10884000012804D0022806D003280CD107E0734980
:10885000C868804708E07149C869804704E06F49EB
:10886000C86A804700E000BF00BF10BD10B50446D5
:10887000072C3CD2DFE804F004090E131C252E005F
:1088800066490868FFF716FD32E064490869FFF79A
:1088900011FD2DE06149086AFFF70CFD28E05F49F2
:1088A0000868FFF707FD5D490869FFF703FD1FE052
:1088B0005A490868FFF7FEFC5849086AFFF7FAFCB6
:1088C00016E056490869FFF7F5FC5449086AFFF7B6
:1088D000F1FC0DE051490868FFF7ECFC4F490869CD
:1088E000FFF7E8FC4D49086AFFF7E4FC00E000BF31
:1088F00000BF10BD10B54C48007808283CD2DFE816
:1089000000F03B04090E131C252E44490868FFF7AC
:10891000D8FC32E041490869FFF7D3FC2DE03F491C
:10892000086AFFF7CEFC28E03C490868FFF7C9FC5D
:108930003A490869FFF7C5FC1FE038490868FFF7A6
:10894000C0FC3649086AFFF7BCFC16E033490869E9
:10895000FFF7B7FC3149086AFFF7B3FC0DE02F4978
